{
  "_format": "hh-sol-artifact-1",
  "contractName": "MyNFT",
  "sourceName": "contracts/myNFT.sol",
  "abi": [
    {
      "inputs": [],
      "stateMutability": "nonpayable",
      "type": "constructor"
    },
    {
      "anonymous": false,
      "inputs": [
        {
          "indexed": true,
          "internalType": "address",
          "name": "owner",
          "type": "address"
        },
        {
          "indexed": true,
          "internalType": "address",
          "name": "approved",
          "type": "address"
        },
        {
          "indexed": true,
          "internalType": "uint256",
          "name": "tokenId",
          "type": "uint256"
        }
      ],
      "name": "Approval",
      "type": "event"
    },
    {
      "anonymous": false,
      "inputs": [
        {
          "indexed": true,
          "internalType": "address",
          "name": "owner",
          "type": "address"
        },
        {
          "indexed": true,
          "internalType": "address",
          "name": "operator",
          "type": "address"
        },
        {
          "indexed": false,
          "internalType": "bool",
          "name": "approved",
          "type": "bool"
        }
      ],
      "name": "ApprovalForAll",
      "type": "event"
    },
    {
      "anonymous": false,
      "inputs": [
        {
          "indexed": false,
          "internalType": "uint256",
          "name": "tokenId",
          "type": "uint256"
        },
        {
          "indexed": false,
          "internalType": "uint256",
          "name": "price",
          "type": "uint256"
        },
        {
          "indexed": false,
          "internalType": "address",
          "name": "creator",
          "type": "address"
        },
        {
          "indexed": false,
          "internalType": "bool",
          "name": "isListed",
          "type": "bool"
        }
      ],
      "name": "NftItemCreated",
      "type": "event"
    },
    {
      "anonymous": false,
      "inputs": [
        {
          "indexed": true,
          "internalType": "address",
          "name": "previousOwner",
          "type": "address"
        },
        {
          "indexed": true,
          "internalType": "address",
          "name": "newOwner",
          "type": "address"
        }
      ],
      "name": "OwnershipTransferred",
      "type": "event"
    },
    {
      "anonymous": false,
      "inputs": [
        {
          "indexed": true,
          "internalType": "address",
          "name": "from",
          "type": "address"
        },
        {
          "indexed": true,
          "internalType": "address",
          "name": "to",
          "type": "address"
        },
        {
          "indexed": true,
          "internalType": "uint256",
          "name": "tokenId",
          "type": "uint256"
        }
      ],
      "name": "Transfer",
      "type": "event"
    },
    {
      "inputs": [
        {
          "internalType": "address",
          "name": "to",
          "type": "address"
        },
        {
          "internalType": "uint256",
          "name": "tokenId",
          "type": "uint256"
        }
      ],
      "name": "approve",
      "outputs": [],
      "stateMutability": "nonpayable",
      "type": "function"
    },
    {
      "inputs": [
        {
          "internalType": "address",
          "name": "owner",
          "type": "address"
        }
      ],
      "name": "balanceOf",
      "outputs": [
        {
          "internalType": "uint256",
          "name": "",
          "type": "uint256"
        }
      ],
      "stateMutability": "view",
      "type": "function"
    },
    {
      "inputs": [
        {
          "internalType": "uint256",
          "name": "tokenId",
          "type": "uint256"
        }
      ],
      "name": "burn",
      "outputs": [],
      "stateMutability": "nonpayable",
      "type": "function"
    },
    {
      "inputs": [
        {
          "internalType": "uint256",
          "name": "_tokenId",
          "type": "uint256"
        }
      ],
      "name": "buyTft",
      "outputs": [],
      "stateMutability": "payable",
      "type": "function"
    },
    {
      "inputs": [],
      "name": "getAllNFTsOnSale",
      "outputs": [
        {
          "components": [
            {
              "internalType": "uint256",
              "name": "tokenId",
              "type": "uint256"
            },
            {
              "internalType": "uint256",
              "name": "price",
              "type": "uint256"
            },
            {
              "internalType": "address",
              "name": "creator",
              "type": "address"
            },
            {
              "internalType": "bool",
              "name": "isListed",
              "type": "bool"
            }
          ],
          "internalType": "struct MyNFT.NftItem[]",
          "name": "",
          "type": "tuple[]"
        }
      ],
      "stateMutability": "view",
      "type": "function"
    },
    {
      "inputs": [
        {
          "internalType": "uint256",
          "name": "tokenId",
          "type": "uint256"
        }
      ],
      "name": "getApproved",
      "outputs": [
        {
          "internalType": "address",
          "name": "",
          "type": "address"
        }
      ],
      "stateMutability": "view",
      "type": "function"
    },
    {
      "inputs": [
        {
          "internalType": "uint256",
          "name": "_tokenId",
          "type": "uint256"
        }
      ],
      "name": "getNftItem",
      "outputs": [
        {
          "components": [
            {
              "internalType": "uint256",
              "name": "tokenId",
              "type": "uint256"
            },
            {
              "internalType": "uint256",
              "name": "price",
              "type": "uint256"
            },
            {
              "internalType": "address",
              "name": "creator",
              "type": "address"
            },
            {
              "internalType": "bool",
              "name": "isListed",
              "type": "bool"
            }
          ],
          "internalType": "struct MyNFT.NftItem",
          "name": "",
          "type": "tuple"
        }
      ],
      "stateMutability": "view",
      "type": "function"
    },
    {
      "inputs": [
        {
          "internalType": "address",
          "name": "owner",
          "type": "address"
        },
        {
          "internalType": "address",
          "name": "operator",
          "type": "address"
        }
      ],
      "name": "isApprovedForAll",
      "outputs": [
        {
          "internalType": "bool",
          "name": "",
          "type": "bool"
        }
      ],
      "stateMutability": "view",
      "type": "function"
    },
    {
      "inputs": [],
      "name": "listedItemsCount",
      "outputs": [
        {
          "internalType": "uint256",
          "name": "",
          "type": "uint256"
        }
      ],
      "stateMutability": "view",
      "type": "function"
    },
    {
      "inputs": [
        {
          "internalType": "address",
          "name": "to",
          "type": "address"
        },
        {
          "internalType": "uint256",
          "name": "tokenId",
          "type": "uint256"
        }
      ],
      "name": "mint",
      "outputs": [],
      "stateMutability": "nonpayable",
      "type": "function"
    },
    {
      "inputs": [
        {
          "internalType": "string",
          "name": "tokenUrl",
          "type": "string"
        }
      ],
      "name": "mintToken",
      "outputs": [
        {
          "internalType": "uint256",
          "name": "",
          "type": "uint256"
        }
      ],
      "stateMutability": "payable",
      "type": "function"
    },
    {
      "inputs": [],
      "name": "owner",
      "outputs": [
        {
          "internalType": "address",
          "name": "",
          "type": "address"
        }
      ],
      "stateMutability": "view",
      "type": "function"
    },
    {
      "inputs": [
        {
          "internalType": "uint256",
          "name": "tokenId",
          "type": "uint256"
        }
      ],
      "name": "ownerOf",
      "outputs": [
        {
          "internalType": "address",
          "name": "",
          "type": "address"
        }
      ],
      "stateMutability": "view",
      "type": "function"
    },
    {
      "inputs": [
        {
          "internalType": "uint256",
          "name": "_tokenId",
          "type": "uint256"
        },
        {
          "internalType": "uint256",
          "name": "newPrice",
          "type": "uint256"
        }
      ],
      "name": "placeNFTOnSale",
      "outputs": [],
      "stateMutability": "payable",
      "type": "function"
    },
    {
      "inputs": [],
      "name": "renounceOwnership",
      "outputs": [],
      "stateMutability": "nonpayable",
      "type": "function"
    },
    {
      "inputs": [
        {
          "internalType": "address",
          "name": "operator",
          "type": "address"
        },
        {
          "internalType": "bool",
          "name": "approved",
          "type": "bool"
        }
      ],
      "name": "setApprovalForAll",
      "outputs": [],
      "stateMutability": "nonpayable",
      "type": "function"
    },
    {
      "inputs": [
        {
          "internalType": "uint256",
          "name": "tokenId",
          "type": "uint256"
        },
        {
          "internalType": "string",
          "name": "_tokenURI",
          "type": "string"
        }
      ],
      "name": "setTokenURI",
      "outputs": [],
      "stateMutability": "nonpayable",
      "type": "function"
    },
    {
      "inputs": [
        {
          "internalType": "uint256",
          "name": "index",
          "type": "uint256"
        }
      ],
      "name": "tokenByIndex",
      "outputs": [
        {
          "internalType": "uint256",
          "name": "",
          "type": "uint256"
        }
      ],
      "stateMutability": "view",
      "type": "function"
    },
    {
      "inputs": [
        {
          "internalType": "uint256",
          "name": "tokenId",
          "type": "uint256"
        }
      ],
      "name": "tokenURI",
      "outputs": [
        {
          "internalType": "string",
          "name": "",
          "type": "string"
        }
      ],
      "stateMutability": "view",
      "type": "function"
    },
    {
      "inputs": [],
      "name": "totalSupply",
      "outputs": [
        {
          "internalType": "uint256",
          "name": "",
          "type": "uint256"
        }
      ],
      "stateMutability": "view",
      "type": "function"
    },
    {
      "inputs": [
        {
          "internalType": "address",
          "name": "from",
          "type": "address"
        },
        {
          "internalType": "address",
          "name": "to",
          "type": "address"
        },
        {
          "internalType": "uint256",
          "name": "tokenId",
          "type": "uint256"
        }
      ],
      "name": "transferFrom",
      "outputs": [],
      "stateMutability": "nonpayable",
      "type": "function"
    },
    {
      "inputs": [
        {
          "internalType": "address",
          "name": "newOwner",
          "type": "address"
        }
      ],
      "name": "transferOwnership",
      "outputs": [],
      "stateMutability": "nonpayable",
      "type": "function"
    }
  ],
  "bytecode": "0x60806040523480156200001157600080fd5b506040518060400160405280600581526020017f4d794e46540000000000000000000000000000000000000000000000000000008152506040518060400160405280600381526020017f4e46540000000000000000000000000000000000000000000000000000000000815250816000908051906020019062000096929190620001a6565b508060019080519060200190620000af929190620001a6565b505050620000d2620000c6620000d860201b60201c565b620000e060201b60201c565b620002bb565b600033905090565b6000600760009054906101000a900473ffffffffffffffffffffffffffffffffffffffff16905081600760006101000a81548173ffffffffffffffffffffffffffffffffffffffff021916908373ffffffffffffffffffffffffffffffffffffffff1602179055508173ffffffffffffffffffffffffffffffffffffffff168173ffffffffffffffffffffffffffffffffffffffff167f8be0079c531659141344cd1fd0a4f28419497f9722a3daafe3b4186f6b6457e060405160405180910390a35050565b828054620001b49062000285565b90600052602060002090601f016020900481019282620001d8576000855562000224565b82601f10620001f357805160ff191683800117855562000224565b8280016001018555821562000224579182015b828111156200022357825182559160200191906001019062000206565b5b50905062000233919062000237565b5090565b5b808211156200025257600081600090555060010162000238565b5090565b7f4e487b7100000000000000000000000000000000000000000000000000000000600052602260045260246000fd5b600060028204905060018216806200029e57607f821691505b60208210811415620002b557620002b462000256565b5b50919050565b612f8680620002cb6000396000f3fe6080604052600436106101355760003560e01c80636352211e116100ab578063a22cb4651161006f578063a22cb4651461040d578063c87b56dd14610436578063ccb4918d14610473578063e985e9c51461049e578063f0be4fac146104db578063f2fde38b1461050657610135565b80636352211e146103145780636f1a0af51461035157806370a082311461038e578063715018a6146103cb5780638da5cb5b146103e257610135565b806323b872dd116100fd57806323b872dd146102105780632e5db4c41461023957806333eba49a1461025557806340c10f191461028557806342966c68146102ae5780634f6ccce7146102d757610135565b8063081812fc1461013a578063095ea7b314610177578063162094c4146101a057806318160ddd146101c9578063232e5aa6146101f4575b600080fd5b34801561014657600080fd5b50610161600480360381019061015c9190611c8f565b61052f565b60405161016e9190611cfd565b60405180910390f35b34801561018357600080fd5b5061019e60048036038101906101999190611d44565b610575565b005b3480156101ac57600080fd5b506101c760048036038101906101c29190611eca565b61067f565b005b3480156101d557600080fd5b506101de6106f3565b6040516101eb9190611f35565b60405180910390f35b61020e60048036038101906102099190611f50565b610700565b005b34801561021c57600080fd5b5061023760048036038101906102329190611f90565b61083b565b005b610253600480360381019061024e9190611c8f565b6109bc565b005b61026f600480360381019061026a9190611fe3565b610ae9565b60405161027c9190611f35565b60405180910390f35b34801561029157600080fd5b506102ac60048036038101906102a79190611d44565b610bf7565b005b3480156102ba57600080fd5b506102d560048036038101906102d09190611c8f565b610dc5565b005b3480156102e357600080fd5b506102fe60048036038101906102f99190611c8f565b610ed6565b60405161030b9190611f35565b60405180910390f35b34801561032057600080fd5b5061033b60048036038101906103369190611c8f565b610f47565b6040516103489190611cfd565b60405180910390f35b34801561035d57600080fd5b5061037860048036038101906103739190611c8f565b610ff9565b60405161038591906120ba565b60405180910390f35b34801561039a57600080fd5b506103b560048036038101906103b091906120d5565b6110ab565b6040516103c29190611f35565b60405180910390f35b3480156103d757600080fd5b506103e0611163565b005b3480156103ee57600080fd5b506103f7611177565b6040516104049190611cfd565b60405180910390f35b34801561041957600080fd5b50610434600480360381019061042f919061212e565b6111a1565b005b34801561044257600080fd5b5061045d60048036038101906104589190611c8f565b61130d565b60405161046a91906121f6565b60405180910390f35b34801561047f57600080fd5b50610488611401565b6040516104959190611f35565b60405180910390f35b3480156104aa57600080fd5b506104c560048036038101906104c09190612218565b611412565b6040516104d29190612267565b60405180910390f35b3480156104e757600080fd5b506104f06114a6565b6040516104fd9190612386565b60405180910390f35b34801561051257600080fd5b5061052d600480360381019061052891906120d5565b611640565b005b600061053a826116c4565b6003600083815260200190815260200160002060009054906101000a900473ffffffffffffffffffffffffffffffffffffffff169050919050565b600061058082610f47565b90508073ffffffffffffffffffffffffffffffffffffffff168373ffffffffffffffffffffffffffffffffffffffff1614156105f1576040517f08c379a00000000000000000000000000000000000000000000000000000000081526004016105e89061241a565b60405180910390fd5b8073ffffffffffffffffffffffffffffffffffffffff163373ffffffffffffffffffffffffffffffffffffffff16148061063157506106308133611412565b5b610670576040517f08c379a0000000000000000000000000000000000000000000000000000000008152600401610667906124ac565b60405180910390fd5b61067a838361170f565b505050565b610688826117c8565b6106c7576040517f08c379a00000000000000000000000000000000000000000000000000000000081526004016106be9061253e565b60405180910390fd5b806005600084815260200190815260200160002090805190602001906106ee929190611b62565b505050565b6000600a80549050905090565b3373ffffffffffffffffffffffffffffffffffffffff1661072083610f47565b73ffffffffffffffffffffffffffffffffffffffff1614610776576040517f08c379a000000000000000000000000000000000000000000000000000000000815260040161076d906125aa565b60405180910390fd5b6000600c600084815260200190815260200160002060020160146101000a81548160ff02191690831515021790556107e3576040517f08c379a00000000000000000000000000000000000000000000000000000000081526004016107da90612616565b60405180910390fd5b6001600c600084815260200190815260200160002060020160146101000a81548160ff02191690831515021790555061081c6009611834565b80600c6000848152602001908152602001600020600101819055505050565b600073ffffffffffffffffffffffffffffffffffffffff168273ffffffffffffffffffffffffffffffffffffffff1614156108ab576040517f08c379a00000000000000000000000000000000000000000000000000000000081526004016108a2906126a8565b60405180910390fd5b6108b5338261184a565b6108f4576040517f08c379a00000000000000000000000000000000000000000000000000000000081526004016108eb9061273a565b60405180910390fd5b6108ff60008261170f565b816002600083815260200190815260200160002060006101000a81548173ffffffffffffffffffffffffffffffffffffffff021916908373ffffffffffffffffffffffffffffffffffffffff160217905550808273ffffffffffffffffffffffffffffffffffffffff168473ffffffffffffffffffffffffffffffffffffffff167fddf252ad1be2c89b69c2b068fc378daa952ba7f163c4a11628f55a4df523b3ef60405160405180910390a46109b78383836118df565b505050565b6000600c600083815260200190815260200160002060010154905060006109e283610f47565b90508073ffffffffffffffffffffffffffffffffffffffff163373ffffffffffffffffffffffffffffffffffffffff161415610a53576040517f08c379a0000000000000000000000000000000000000000000000000000000008152600401610a4a906127a6565b60405180910390fd5b81341415610a96576040517f08c379a0000000000000000000000000000000000000000000000000000000008152600401610a8d90612812565b60405180910390fd5b610aa033846118e4565b6000600c600085815260200190815260200160002060020160146101000a81548160ff021916908315150217905550610ad96009611927565b610ae481338561083b565b505050565b6000610af482611983565b15610b34576040517f08c379a0000000000000000000000000000000000000000000000000000000008152600401610b2b9061287e565b60405180910390fd5b60003411610b77576040517f08c379a0000000000000000000000000000000000000000000000000000000008152600401610b6e906128ea565b60405180910390fd5b610b816008611834565b610b8b6009611834565b6000610b9760086119bf565b9050610ba333826118e4565b610bad3382610bf7565b610bb7818461067f565b6001600b84604051610bc99190612946565b908152602001604051809103902060006101000a81548160ff02191690831515021790555080915050919050565b600073ffffffffffffffffffffffffffffffffffffffff168273ffffffffffffffffffffffffffffffffffffffff161415610c67576040517f08c379a0000000000000000000000000000000000000000000000000000000008152600401610c5e906129a9565b60405180910390fd5b610c70816117c8565b15610cb0576040517f08c379a0000000000000000000000000000000000000000000000000000000008152600401610ca790612a15565b60405180910390fd5b6001600660008473ffffffffffffffffffffffffffffffffffffffff1673ffffffffffffffffffffffffffffffffffffffff1681526020019081526020016000206000828254610d009190612a64565b92505081905550816002600083815260200190815260200160002060006101000a81548173ffffffffffffffffffffffffffffffffffffffff021916908373ffffffffffffffffffffffffffffffffffffffff160217905550808273ffffffffffffffffffffffffffffffffffffffff16600073ffffffffffffffffffffffffffffffffffffffff167fddf252ad1be2c89b69c2b068fc378daa952ba7f163c4a11628f55a4df523b3ef60405160405180910390a4610dc1600083836118df565b5050565b6000610dd082610f47565b9050610ddd60008361170f565b6001600660008373ffffffffffffffffffffffffffffffffffffffff1673ffffffffffffffffffffffffffffffffffffffff1681526020019081526020016000206000828254610e2d9190612aba565b925050819055506002600083815260200190815260200160002060006101000a81549073ffffffffffffffffffffffffffffffffffffffff021916905581600073ffffffffffffffffffffffffffffffffffffffff168273ffffffffffffffffffffffffffffffffffffffff167fddf252ad1be2c89b69c2b068fc378daa952ba7f163c4a11628f55a4df523b3ef60405160405180910390a4610ed2816000846118df565b5050565b6000610ee06106f3565b8210610f21576040517f08c379a0000000000000000000000000000000000000000000000000000000008152600401610f1890612b3a565b60405180910390fd5b600a8281548110610f3557610f34612b5a565b5b90600052602060002001549050919050565b6000806002600084815260200190815260200160002060009054906101000a900473ffffffffffffffffffffffffffffffffffffffff169050600073ffffffffffffffffffffffffffffffffffffffff168173ffffffffffffffffffffffffffffffffffffffff161415610ff0576040517f08c379a0000000000000000000000000000000000000000000000000000000008152600401610fe790612bd5565b60405180910390fd5b80915050919050565b611001611be8565b600c600083815260200190815260200160002060405180608001604052908160008201548152602001600182015481526020016002820160009054906101000a900473ffffffffffffffffffffffffffffffffffffffff1673ffffffffffffffffffffffffffffffffffffffff1673ffffffffffffffffffffffffffffffffffffffff1681526020016002820160149054906101000a900460ff1615151515815250509050919050565b60008073ffffffffffffffffffffffffffffffffffffffff168273ffffffffffffffffffffffffffffffffffffffff16141561111c576040517f08c379a000000000000000000000000000000000000000000000000000000000815260040161111390612c67565b60405180910390fd5b600660008373ffffffffffffffffffffffffffffffffffffffff1673ffffffffffffffffffffffffffffffffffffffff168152602001908152602001600020549050919050565b61116b6119cd565b6111756000611a4b565b565b6000600760009054906101000a900473ffffffffffffffffffffffffffffffffffffffff16905090565b8173ffffffffffffffffffffffffffffffffffffffff163373ffffffffffffffffffffffffffffffffffffffff161415611210576040517f08c379a000000000000000000000000000000000000000000000000000000000815260040161120790612cd3565b60405180910390fd5b80600460003373ffffffffffffffffffffffffffffffffffffffff1673ffffffffffffffffffffffffffffffffffffffff16815260200190815260200160002060008473ffffffffffffffffffffffffffffffffffffffff1673ffffffffffffffffffffffffffffffffffffffff16815260200190815260200160002060006101000a81548160ff0219169083151502179055508173ffffffffffffffffffffffffffffffffffffffff163373ffffffffffffffffffffffffffffffffffffffff167f17307eab39ab6107e8899845ad3d59bd9653f200f220920489ca2b5937696c31836040516113019190612267565b60405180910390a35050565b6060611318826116c4565b600060056000848152602001908152602001600020805461133890612d22565b80601f016020809104026020016040519081016040528092919081815260200182805461136490612d22565b80156113b15780601f10611386576101008083540402835291602001916113b1565b820191906000526020600020905b81548152906001019060200180831161139457829003601f168201915b5050505050905060008151116113d657604051806020016040528060008152506113f9565b80836040516020016113e9929190612d75565b6040516020818303038152906040525b915050919050565b600061140d60096119bf565b905090565b6000600460008473ffffffffffffffffffffffffffffffffffffffff1673ffffffffffffffffffffffffffffffffffffffff16815260200190815260200160002060008373ffffffffffffffffffffffffffffffffffffffff1673ffffffffffffffffffffffffffffffffffffffff16815260200190815260200160002060009054906101000a900460ff16905092915050565b606060006114b26106f3565b90506000806114c160096119bf565b67ffffffffffffffff8111156114da576114d9611d9f565b5b60405190808252806020026020018201604052801561151357816020015b611500611be8565b8152602001906001900390816114f85790505b50905060005b8381101561163657600061152c82610ed6565b90506000600c60008381526020019081526020016000209050600115158160020160149054906101000a900460ff1615151415611621578060405180608001604052908160008201548152602001600182015481526020016002820160009054906101000a900473ffffffffffffffffffffffffffffffffffffffff1673ffffffffffffffffffffffffffffffffffffffff1673ffffffffffffffffffffffffffffffffffffffff1681526020016002820160149054906101000a900460ff16151515158152505084868151811061160757611606612b5a565b5b6020026020010181905250848061161d90612d9d565b9550505b5050808061162e90612d9d565b915050611519565b5080935050505090565b6116486119cd565b600073ffffffffffffffffffffffffffffffffffffffff168173ffffffffffffffffffffffffffffffffffffffff1614156116b8576040517f08c379a00000000000000000000000000000000000000000000000000000000081526004016116af90612e58565b60405180910390fd5b6116c181611a4b565b50565b6116cd816117c8565b61170c576040517f08c379a000000000000000000000000000000000000000000000000000000000815260040161170390612bd5565b60405180910390fd5b50565b816003600083815260200190815260200160002060006101000a81548173ffffffffffffffffffffffffffffffffffffffff021916908373ffffffffffffffffffffffffffffffffffffffff160217905550808273ffffffffffffffffffffffffffffffffffffffff1661178283610f47565b73ffffffffffffffffffffffffffffffffffffffff167f8c5be1e5ebec7d5bd14f71427d1e84f3dd0314c0f7b2291e5b200ac8c7c3b92560405160405180910390a45050565b60008073ffffffffffffffffffffffffffffffffffffffff166002600084815260200190815260200160002060009054906101000a900473ffffffffffffffffffffffffffffffffffffffff1673ffffffffffffffffffffffffffffffffffffffff1614159050919050565b6001816000016000828254019250508190555050565b60008061185683610f47565b90508073ffffffffffffffffffffffffffffffffffffffff168473ffffffffffffffffffffffffffffffffffffffff16148061189857506118978185611412565b5b806118d657508373ffffffffffffffffffffffffffffffffffffffff166118be8461052f565b73ffffffffffffffffffffffffffffffffffffffff16145b91505092915050565b505050565b600073ffffffffffffffffffffffffffffffffffffffff168273ffffffffffffffffffffffffffffffffffffffff1614156119235761192281611b11565b5b5050565b60008160000154905060008111611973576040517f08c379a000000000000000000000000000000000000000000000000000000000815260040161196a90612ec4565b60405180910390fd5b6001810382600001819055505050565b600060011515600b836040516119999190612946565b908152602001604051809103902060009054906101000a900460ff161515149050919050565b600081600001549050919050565b6119d5611b5a565b73ffffffffffffffffffffffffffffffffffffffff166119f3611177565b73ffffffffffffffffffffffffffffffffffffffff1614611a49576040517f08c379a0000000000000000000000000000000000000000000000000000000008152600401611a4090612f30565b60405180910390fd5b565b6000600760009054906101000a900473ffffffffffffffffffffffffffffffffffffffff16905081600760006101000a81548173ffffffffffffffffffffffffffffffffffffffff021916908373ffffffffffffffffffffffffffffffffffffffff1602179055508173ffffffffffffffffffffffffffffffffffffffff168173ffffffffffffffffffffffffffffffffffffffff167f8be0079c531659141344cd1fd0a4f28419497f9722a3daafe3b4186f6b6457e060405160405180910390a35050565b600a80549050600d600083815260200190815260200160002081905550600a81908060018154018082558091505060019003906000526020600020016000909190919091505550565b600033905090565b828054611b6e90612d22565b90600052602060002090601f016020900481019282611b905760008555611bd7565b82601f10611ba957805160ff1916838001178555611bd7565b82800160010185558215611bd7579182015b82811115611bd6578251825591602001919060010190611bbb565b5b509050611be49190611c28565b5090565b60405180608001604052806000815260200160008152602001600073ffffffffffffffffffffffffffffffffffffffff1681526020016000151581525090565b5b80821115611c41576000816000905550600101611c29565b5090565b6000604051905090565b600080fd5b600080fd5b6000819050919050565b611c6c81611c59565b8114611c7757600080fd5b50565b600081359050611c8981611c63565b92915050565b600060208284031215611ca557611ca4611c4f565b5b6000611cb384828501611c7a565b91505092915050565b600073ffffffffffffffffffffffffffffffffffffffff82169050919050565b6000611ce782611cbc565b9050919050565b611cf781611cdc565b82525050565b6000602082019050611d126000830184611cee565b92915050565b611d2181611cdc565b8114611d2c57600080fd5b50565b600081359050611d3e81611d18565b92915050565b60008060408385031215611d5b57611d5a611c4f565b5b6000611d6985828601611d2f565b9250506020611d7a85828601611c7a565b9150509250929050565b600080fd5b600080fd5b6000601f19601f8301169050919050565b7f4e487b7100000000000000000000000000000000000000000000000000000000600052604160045260246000fd5b611dd782611d8e565b810181811067ffffffffffffffff82111715611df657611df5611d9f565b5b80604052505050565b6000611e09611c45565b9050611e158282611dce565b919050565b600067ffffffffffffffff821115611e3557611e34611d9f565b5b611e3e82611d8e565b9050602081019050919050565b82818337600083830152505050565b6000611e6d611e6884611e1a565b611dff565b905082815260208101848484011115611e8957611e88611d89565b5b611e94848285611e4b565b509392505050565b600082601f830112611eb157611eb0611d84565b5b8135611ec1848260208601611e5a565b91505092915050565b60008060408385031215611ee157611ee0611c4f565b5b6000611eef85828601611c7a565b925050602083013567ffffffffffffffff811115611f1057611f0f611c54565b5b611f1c85828601611e9c565b9150509250929050565b611f2f81611c59565b82525050565b6000602082019050611f4a6000830184611f26565b92915050565b60008060408385031215611f6757611f66611c4f565b5b6000611f7585828601611c7a565b9250506020611f8685828601611c7a565b9150509250929050565b600080600060608486031215611fa957611fa8611c4f565b5b6000611fb786828701611d2f565b9350506020611fc886828701611d2f565b9250506040611fd986828701611c7a565b9150509250925092565b600060208284031215611ff957611ff8611c4f565b5b600082013567ffffffffffffffff81111561201757612016611c54565b5b61202384828501611e9c565b91505092915050565b61203581611c59565b82525050565b61204481611cdc565b82525050565b60008115159050919050565b61205f8161204a565b82525050565b60808201600082015161207b600085018261202c565b50602082015161208e602085018261202c565b5060408201516120a1604085018261203b565b5060608201516120b46060850182612056565b50505050565b60006080820190506120cf6000830184612065565b92915050565b6000602082840312156120eb576120ea611c4f565b5b60006120f984828501611d2f565b91505092915050565b61210b8161204a565b811461211657600080fd5b50565b60008135905061212881612102565b92915050565b6000806040838503121561214557612144611c4f565b5b600061215385828601611d2f565b925050602061216485828601612119565b9150509250929050565b600081519050919050565b600082825260208201905092915050565b60005b838110156121a857808201518184015260208101905061218d565b838111156121b7576000848401525b50505050565b60006121c88261216e565b6121d28185612179565b93506121e281856020860161218a565b6121eb81611d8e565b840191505092915050565b6000602082019050818103600083015261221081846121bd565b905092915050565b6000806040838503121561222f5761222e611c4f565b5b600061223d85828601611d2f565b925050602061224e85828601611d2f565b9150509250929050565b6122618161204a565b82525050565b600060208201905061227c6000830184612258565b92915050565b600081519050919050565b600082825260208201905092915050565b6000819050602082019050919050565b6080820160008201516122c4600085018261202c565b5060208201516122d7602085018261202c565b5060408201516122ea604085018261203b565b5060608201516122fd6060850182612056565b50505050565b600061230f83836122ae565b60808301905092915050565b6000602082019050919050565b600061233382612282565b61233d818561228d565b93506123488361229e565b8060005b838110156123795781516123608882612303565b975061236b8361231b565b92505060018101905061234c565b5085935050505092915050565b600060208201905081810360008301526123a08184612328565b905092915050565b7f4552433732313a20617070726f76616c20746f2063757272656e74206f776e6560008201527f7200000000000000000000000000000000000000000000000000000000000000602082015250565b6000612404602183612179565b915061240f826123a8565b604082019050919050565b60006020820190508181036000830152612433816123f7565b9050919050565b7f4552433732313a20617070726f76652063616c6c6572206973206e6f7420746f60008201527f6b656e206f776e6572206e6f7220617070726f76656420666f7220616c6c0000602082015250565b6000612496603e83612179565b91506124a18261243a565b604082019050919050565b600060208201905081810360008301526124c581612489565b9050919050565b7f45524337323155524953746f726167653a2055524920736574206f66206e6f6e60008201527f6578697374656e7420746f6b656e000000000000000000000000000000000000602082015250565b6000612528602e83612179565b9150612533826124cc565b604082019050919050565b600060208201905081810360008301526125578161251b565b9050919050565b7f596f7520617265206e6f74206f776e6572206f66204e46540000000000000000600082015250565b6000612594601883612179565b915061259f8261255e565b602082019050919050565b600060208201905081810360008301526125c381612587565b9050919050565b7f4974656d20697320616c7265616479206f6e2073616c65000000000000000000600082015250565b6000612600601783612179565b915061260b826125ca565b602082019050919050565b6000602082019050818103600083015261262f816125f3565b9050919050565b7f4552433732313a207472616e7366657220746f20746865207a65726f2061646460008201527f7265737300000000000000000000000000000000000000000000000000000000602082015250565b6000612692602483612179565b915061269d82612636565b604082019050919050565b600060208201905081810360008301526126c181612685565b9050919050565b7f4552433732313a2063616c6c6572206973206e6f7420746f6b656e206f776e6560008201527f72206e6f7220617070726f766564000000000000000000000000000000000000602082015250565b6000612724602e83612179565b915061272f826126c8565b604082019050919050565b6000602082019050818103600083015261275381612717565b9050919050565b7f596f7520616c7265616479206f776e2074686973204e46540000000000000000600082015250565b6000612790601883612179565b915061279b8261275a565b602082019050919050565b600060208201905081810360008301526127bf81612783565b9050919050565b7f506c656173652061646420707269636500000000000000000000000000000000600082015250565b60006127fc601083612179565b9150612807826127c6565b602082019050919050565b6000602082019050818103600083015261282b816127ef565b9050919050565b7f546f6b656e2055524920616c7265616479206578697374730000000000000000600082015250565b6000612868601883612179565b915061287382612832565b602082019050919050565b600060208201905081810360008301526128978161285b565b9050919050565b7f5072696365206d75737420626520686967686572207468616e207a65726f0000600082015250565b60006128d4601e83612179565b91506128df8261289e565b602082019050919050565b60006020820190508181036000830152612903816128c7565b9050919050565b600081905092915050565b60006129208261216e565b61292a818561290a565b935061293a81856020860161218a565b80840191505092915050565b60006129528284612915565b915081905092915050565b7f4552433732313a206d696e7420746f20746865207a65726f2061646472657373600082015250565b6000612993602083612179565b915061299e8261295d565b602082019050919050565b600060208201905081810360008301526129c281612986565b9050919050565b7f4552433732313a20746f6b656e20616c7265616479206d696e74656400000000600082015250565b60006129ff601c83612179565b9150612a0a826129c9565b602082019050919050565b60006020820190508181036000830152612a2e816129f2565b9050919050565b7f4e487b7100000000000000000000000000000000000000000000000000000000600052601160045260246000fd5b6000612a6f82611c59565b9150612a7a83611c59565b9250827fffffffffffffffffffffffffffffffffffffffffffffffffffffffffffffffff03821115612aaf57612aae612a35565b5b828201905092915050565b6000612ac582611c59565b9150612ad083611c59565b925082821015612ae357612ae2612a35565b5b828203905092915050565b7f496e646578206f7574206f6620626f756e647300000000000000000000000000600082015250565b6000612b24601383612179565b9150612b2f82612aee565b602082019050919050565b60006020820190508181036000830152612b5381612b17565b9050919050565b7f4e487b7100000000000000000000000000000000000000000000000000000000600052603260045260246000fd5b7f4552433732313a20696e76616c696420746f6b656e2049440000000000000000600082015250565b6000612bbf601883612179565b9150612bca82612b89565b602082019050919050565b60006020820190508181036000830152612bee81612bb2565b9050919050565b7f4552433732313a2061646472657373207a65726f206973206e6f74206120766160008201527f6c6964206f776e65720000000000000000000000000000000000000000000000602082015250565b6000612c51602983612179565b9150612c5c82612bf5565b604082019050919050565b60006020820190508181036000830152612c8081612c44565b9050919050565b7f4552433732313a20617070726f766520746f2063616c6c657200000000000000600082015250565b6000612cbd601983612179565b9150612cc882612c87565b602082019050919050565b60006020820190508181036000830152612cec81612cb0565b9050919050565b7f4e487b7100000000000000000000000000000000000000000000000000000000600052602260045260246000fd5b60006002820490506001821680612d3a57607f821691505b60208210811415612d4e57612d4d612cf3565b5b50919050565b6000819050919050565b612d6f612d6a82611c59565b612d54565b82525050565b6000612d818285612915565b9150612d8d8284612d5e565b6020820191508190509392505050565b6000612da882611c59565b91507fffffffffffffffffffffffffffffffffffffffffffffffffffffffffffffffff821415612ddb57612dda612a35565b5b600182019050919050565b7f4f776e61626c653a206e6577206f776e657220697320746865207a65726f206160008201527f6464726573730000000000000000000000000000000000000000000000000000602082015250565b6000612e42602683612179565b9150612e4d82612de6565b604082019050919050565b60006020820190508181036000830152612e7181612e35565b9050919050565b7f436f756e7465723a2064656372656d656e74206f766572666c6f770000000000600082015250565b6000612eae601b83612179565b9150612eb982612e78565b602082019050919050565b60006020820190508181036000830152612edd81612ea1565b9050919050565b7f4f776e61626c653a2063616c6c6572206973206e6f7420746865206f776e6572600082015250565b6000612f1a602083612179565b9150612f2582612ee4565b602082019050919050565b60006020820190508181036000830152612f4981612f0d565b905091905056fea2646970667358221220e0d5297e71413a3cfac6d94193a3ed5d5833f8e408e3acb698f25da5f224c8c964736f6c63430008090033",
  "linkReferences": {},
  "deployedLinkReferences": {}
}